:100000000C942A000C94BD000C943C000C943C0011
:100010000C943C000C943C000C943C000C943C0070
:100020000C943C000C943C000C943C000C943C0060
:100030000C943C000C943C000C943C000C943C0050
:100040000C943C000C943C000C943C000C943C0040
:100050000C943C0011241FBECFE5D8E0DEBFCDBF1D
:1000600020E0A0E6B0E001C01D92A436B207E1F79F
:100070000E943E000C9489020C9400001ABA8FEF83
:1000800087BB84BB8BEF81BB87E886B98BB7806465
:100090008BBF85B7816085BF7894D1E4C0E4909A26
:1000A00080E58A95F1F79098609162007091630005
:1000B000072E000C880B990B0E94670120E030E0AE
:1000C00048E652E40E94F3006B017C0120E030E03E
:1000D000A9010E941702882364F020E030E040E785
:1000E00051E4C701B6010E94EE00882314F4C49ABB
:1000F00001C0C498D7B9369A3699FECF64B175B1AC
:1001000080E090E00E94650120E030E040E85AE3A2
:100110000E941C0220E030E040EA50E40E941C02F1
:1001200020E030E040E85FE30E94EE00882314F412
:10013000C29A01C0C298C7B9369A3699FECF64B147
:1001400075B180E090E00E94650120E030E040E879
:100150005AE30E941C0220E030E04AEF53E40E9480
:100160001C0220E030E040E152E40E941702181621
:1001700014F4C09A94CFC09892CF1F920F920FB6EA
:100180000F9211248F939F93809160009091610052
:10019000019771F41EBC8CB59DB59093630080935C
:1001A00062001DBC1CBC10926100109260000FC068
:1001B0008091600090916100892B49F48EB5816037
:1001C0008EBD81E090E090936100809360009F91EC
:1001D0008F910F900FBE0F901F9018950E94A20153
:1001E00008F481E008950E9407010C94DD010E944B
:1001F000D60158F00E94CF0140F029F45F3F29F06A
:100200000C94C60151110C9411020C94CC010E9463
:10021000EE0168F39923B1F3552391F3951B550B28
:10022000BB27AA2762177307840738F09F5F5F4FC9
:10023000220F331F441FAA1FA9F335D00E2E3AF008
:10024000E0E832D091505040E695001CCAF72BD020
:10025000FE2F29D0660F771F881FBB1F2617370771
:100260004807AB07B0E809F0BB0B802DBF01FF27A3
:1002700093585F4F3AF09E3F510578F00C94C601B9
:100280000C9411025F3FE4F3983ED4F38695779582
:100290006795B795F7959F5FC9F7880F911D96955C
:1002A000879597F90895E1E0660F771F881FBB1FB8
:1002B000621773078407BA0720F0621B730B840B65
:1002C000BA0BEE1F88F7E0950895E89409C097FBF4
:1002D0003EF490958095709561957F4F8F4F9F4F1D
:1002E0009923A9F0F92F96E9BB279395F695879561
:1002F00077956795B795F111F8CFFAF4BB0F11F424
:1003000060FF1BC06F5F7F4F8F4F9F4F16C08823CA
:1003100011F096E911C0772321F09EE8872F762F00
:1003200005C0662371F096E8862F70E060E02AF041
:100330009A95660F771F881FDAF7880F969587952D
:1003400097F90895990F0008550FAA0BE0E8FEEF02
:1003500016161706E807F907C0F012161306E40789
:10036000F50798F0621B730B840B950B39F40A2682
:1003700061F0232B242B252B21F408950A2609F460
:10038000A140A6958FEF811D811D089597F99F6764
:1003900080E870E060E008959FEF80EC089500240D
:1003A0000A941616170618060906089500240A94DA
:1003B00012161306140605060895092E0394000C60
:1003C00011F4882352F0BB0F40F4BF2B11F460FFEF
:1003D00004C06F5F7F4F8F4F9F4F089557FD905818
:1003E000440F551F59F05F3F71F04795880F97FBF9
:1003F000991F61F09F3F79F08795089512161306B3
:100400001406551FF2CF4695F1DF08C016161706E1
:100410001806991FF1CF8695710561050894089516
:10042000E894BB2766277727CB0197F908950E94A8
:10043000A20108F48FEF08950E942F020C94DD01B1
:100440000E94CF0138F00E94D60120F0952311F0D0
:100450000C94C6010C94CC0111240C9411020E943E
:10046000EE0170F3959FC1F3950F50E0551F629F09
:10047000F001729FBB27F00DB11D639FAA27F00DFD
:10048000B11DAA1F649F6627B00DA11D661F829F24
:100490002227B00DA11D621F739FB00DA11D621F09
:1004A000839FA00D611D221F749F3327A00D611D26
:1004B000231F849F600D211D822F762F6A2F112408
:1004C0009F5750409AF0F1F088234AF0EE0FFF1F3B
:1004D000BB1F661F771F881F91505040A9F79E3F92
:1004E000510580F00C94C6010C9411025F3FE4F3B7
:1004F000983ED4F3869577956795B795F795E795E8
:100500009F5FC1F7FE2B880F911D9695879597F9F0
:060510000895F894FFCFEE
:00000001FF
