S01700004763634170706C69636174696F6E332E7372656359
S11300000C942A000C9434000C9434000C943400A6
S11300100C9434000C9434000C9434000C9434008C
S11300200C9434000C9434000C9434000C9434007C
S11300300C9434000C9434000C9434000C9434006C
S11300400C9434000C9434000C9434000C9434005C
S11300500C94340011241FBECFE5D8E0DEBFCDBF21
S11300600E9436000C9479000C94000081B38FEF49
S113007081BB1ABA80E189BB8FB5826C8FBD8EB506
S113008089618EBD80E492E497BD86BD86B597B53F
S1130090845691099BBD8ABD2FE38DE093E02150E6
S11300A080409040E1F700C00000C89B10C086B5B6
S11300B097B5885998409BBD8ABD2FE38DE093E0A6
S11300C0215080409040E1F700C00000EECFC89975
S11300D0ECCF86B597B5845691099BBD8ABD2FE3B5
S11300E08DE093E0215080409040E1F700C0000093
S10900F0DCCFF894FFCF01
S9030000FC
