S00D0000536572766F2E7372656308
S11300000C942A000C9434000C9434000C943400A6
S11300100C9434000C9434000C9434000C9434008C
S11300200C9434000C9434000C9434000C9434007C
S11300300C9434000C9434000C9434000C9434006C
S11300400C9434000C9434000C9434000C9434005C
S11300500C94340011241FBECFE5D8E0DEBFCDBF21
S11300600E9436000C9469000C9400008D9A1DBC0B
S11300701CBC83EC99E097BD86BD82E88FBD8BE103
S11300808EBD41E450E02FEA30E08CE291E05BBDAC
S11300904ABD6FED73E9E4E061507040E040E1F780
S11300A000C000003BBD2ABD6FED73E9E4E0615080
S11300B07040E040E1F700C000009BBD8ABD6FEDD9
S11300C073E9E4E061507040E040E1F700C00000F3
S10900D0DECFF894FFCF1F
S9030000FC
