S0100000736F6E61724E65772E73726563C7
S11300000C942A000C943E000C943C000C943C008C
S11300100C943C000C943C000C943C000C943C006C
S11300200C943C000C943C000C943C000C943C005C
S11300300C943C000C943C000C943C000C943C004C
S11300400C943C000C943C000C943C000C943C003C
S11300500C943C0011241FBECFE5D8E0DEBFCDBF19
S113006020E0A0E6B0E001C01D92A636B207E1F799
S11300700E946F000C94B8000C9400001F920F9221
S11300800FB60F9211248F939F93809162009091E9
S11300906300019771F41EBC8CB59DB59093650007
S11300A0809364001DBC1CBC10926300109262001B
S11300B00FC08091620090916300892B49F48EB542
S11300C081608EBD81E090E0909363008093620034
S11300D09F918F910F900FBE0F901F9018958BEFEB
S11300E081BB8FEF87BB18BA83ED90E30197F1F7DB
S11300F000C000008BB780648BBF85B7816085BF6B
S1130100789421E044E050E032E0909A95E09A95AA
S1130110F1F790986FE38DE093E061508040904058
S1130120E1F700C00000809164009091650086367C
S11301309340ACF428BB80916000909161008530BD
S1130140910534F40196909361008093600008C097
S11301500597D9F65093610040936000D6CF18BA42
S11301608091600090916100059779F638BBCDCFFE
S1070170F894FFCF2D
S9030000FC
