S01700004763634170706C69636174696F6E342E7372656358
S11300000C942A000C9447000C9449000C9447006B
S11300100C9447000C9447000C9447000C94470040
S11300200C9447000C9447000C9447000C94470030
S11300300C9447000C9447000C9447000C94470020
S11300400C9447000C9447000C9447000C94470010
S11300500C94470011241FBECFE5D8E0DEBFCDBF0E
S113006010E0A0E6B0E0EAE5F2E002C005900D92EF
S1130070A03AB107D9F720E0A0EAB0E001C01D9290
S1130080A43AB207E1F70E9485000C942B010C946A
S113009000001F920F920FB60F9211242F933F93DB
S11300A08F939F93F89418BA2091A2003091A300E3
S11300B081E090E0821B930B9093A3008093A200B5
S11300C01092A1001092A0008FE493EC0197F1F735
S11300D000C0000078949F918F913F912F910F90D1
S11300E00FBE0F901F90189521E030E0A90102C0C7
S11300F0440F551F8A95E2F748BB02C0220F331FF5
S11301006A95E2F720952BBB08958FEF87BB8ABBD6
S113011080E88BBF85B7886085BF85B78B7F85BF37
S113012078948091A2009091A300892B41F045C05E
S11301308091A2009091A300892B31F02DC00F2E45
S1130140F4E6CF2ED12CF02D0F2EF0E6EF2EF0E0BA
S1130150FF2EF02DD0E012C0F80181918F01882389
S113016021F06C2F8D2F0E947400CF5FC830A1F74F
S1130170F8E0EF0EF11CDF5FD83019F08701C0E022
S1130180EBCF18BA83EC99E00197F1F700C00000B7
S113019091E0C91AD10861F618BAEFE3FDE023E053
S11301A0E150F0402040E1F700C000008091A2003F
S11301B09091A300892B09F4B4CFA12CB12C07C0D2
S11301C08091A2009091A300892B09F4AACF0F2E4D
S11301D0F4E6CF2ED12CF02D32C0F80181918F019D
S11301E0882321F06C2F8D2F0E947400CF5FC830BC
S11301F0A1F7FFEFEF1AFF0ADF5FD830A9F08701FC
S113020007701078112334F401501109086F1F6F1F
S11302100F5F1F4F000F111F000F111F000F111F41
S1130220005A1F4FC0E0D9CF18BA83EC99E0019768
S1130230F1F700C0000091E0C91AD10819F0750166
S1130240D0E0DDCFEFEFAE1ABE0AF8E0AF16B1048E
S10D025009F0B6CF66CFF894FFCF93
S113025A010000000000000101000000000000018C
S113026A010000000000000101000000000000017C
S113027A0100000101000001010001000001000168
S113028A010100000000010100000000000000005C
S9030000FC
