S00D0000536F6E61722E7372656314
S11300000C942A000C9468000C943C000C943C0062
S11300100C943C000C943C000C943C000C943C006C
S11300200C943C000C943C000C943C000C943C005C
S11300300C943C000C943C000C943C000C943C004C
S11300400C943C000C943C000C943C000C943C003C
S11300500C943C0011241FBECFE5D8E0DEBFCDBF19
S113006020E0A0E6B0E001C01D92A436B207E1F79B
S11300700E943E000C9427010C94000011BA8FEFEB
S113008087BB8BB780648BBF85B7816085BF78944D
S1130090CAE3D0E0C49A85E08A95F1F7C4988091C8
S11300A0620090916300BE010E94FF00072E000CC5
S11300B0880B990B0E94A00020E030E040E751E457
S11300C00E949900882314F4C69AE4CFC698E2CF1C
S11300D01F920F920FB60F9211248F939F938091CA
S11300E0600090916100019771F41EBC8CB59DB5C0
S11300F090936300809362001DBC1CBC109261004D
S1130100109260000FC08091600090916100892B73
S113011049F48EB581608EBD81E090E090936100DA
S1130120809360009F918F910F900FBE0F901F904E
S113013018950E94DB0008F481E00895E89409C052
S113014097FB3EF490958095709561957F4F8F4F06
S11301509F4F9923A9F0F92F96E9BB279395F6951C
S1130160879577956795B795F111F8CFFAF4BB0F9A
S113017011F460FF1BC06F5F7F4F8F4F9F4F16C0FE
S1130180882311F096E911C0772321F09EE8872F88
S1130190762F05C0662371F096E8862F70E060E044
S11301A02AF09A95660F771F881FDAF7880F9695BD
S11301B0879597F90895990F0008550FAA0BE0E861
S11301C0FEEF16161706E807F907C0F01216130615
S11301D0E407F50798F0621B730B840B950B39F455
S11301E00A2661F0232B242B252B21F408950A26BB
S11301F009F4A140A6958FEF811D811D089597FBF9
S1130200072E16F4009407D077FD09D00E9413013D
S113021007FC05D03EF4909581959F4F0895709505
S113022061957F4F0895AA1BBB1B51E107C0AA1F0C
S1130230BB1FA617B70710F0A61BB70B881F991F83
S11302405A95A9F780959095BC01CD010895F8942D
S1050250FFCFDA
S9030000FC
