:100000000C942A000C9434000C9434000C943400AA
:100010000C9434000C9434000C9434000C94340090
:100020000C9434000C9434000C9434000C94340080
:100030000C9434000C9434000C9434000C94340070
:100040000C9434000C9434000C9434000C94340060
:100050000C94340011241FBECFE5D8E0DEBFCDBF25
:100060000E9436000C9483010C9400001ABA8FEFA2
:1000700081BB84BB17B881E886B9C0E4369A36994B
:10008000FECF64B175B180E090E00E945F0020E097
:1000900030E040E85AE30E94A10020E030E040EA6E
:1000A00050E40E94A10020E030E040E250E40E94D1
:1000B0009C00181614F4C2BBE1CF12BADFCFE8944B
:1000C00009C097FB3EF490958095709561957F4FA0
:1000D0008F4F9F4F9923A9F0F92F96E9BB2793954E
:1000E000F695879577956795B795F111F8CFFAF45E
:1000F000BB0F11F460FF1BC06F5F7F4F8F4F9F4F8F
:1001000016C0882311F096E911C0772321F09EE8EC
:10011000872F762F05C0662371F096E8862F70E052
:1001200060E02AF09A95660F771F881FDAF7880F2C
:100130009695879597F908950E940E0108F48FEF20
:1001400008950E94B4000C9449010E943B0138F0CC
:100150000E94420120F0952311F00C9432010C947E
:10016000380111240C947D010E945A0170F3959F6F
:10017000C1F3950F50E0551F629FF001729FBB279E
:10018000F00DB11D639FAA27F00DB11DAA1F649F3A
:100190006627B00DA11D661F829F2227B00DA11DED
:1001A000621F739FB00DA11D621F839FA00D611D73
:1001B000221F749F3327A00D611D231F849F600D94
:1001C000211D822F762F6A2F11249F5750409AF0BD
:1001D000F1F088234AF0EE0FFF1FBB1F661F771F49
:1001E000881F91505040A9F79E3F510580F00C9414
:1001F00032010C947D015F3FE4F3983ED4F3869581
:1002000077956795B795F795E7959F5FC1F7FE2BB3
:10021000880F911D9695879597F90895990F000875
:10022000550FAA0BE0E8FEEF16161706E807F907C8
:10023000C0F012161306E407F50798F0621B730B63
:10024000840B950B39F40A2661F0232B242B252BE4
:1002500021F408950A2609F4A140A6958FEF811D87
:10026000811D089597F99F6780E870E060E0089528
:100270009FEF80EC089500240A94161617061806BE
:100280000906089500240A9412161306140605069A
:100290000895092E0394000C11F4882352F0BB0F2B
:1002A00040F4BF2B11F460FF04C06F5F7F4F8F4F8E
:1002B0009F4F089557FD9058440F551F59F05F3FC9
:1002C00071F04795880F97FB991F61F09F3F79F078
:1002D00087950895121613061406551FF2CF4695FA
:1002E000F1DF08C0161617061806991FF1CF86957C
:1002F0007105610508940895E894BB276627772760
:0A030000CB0197F90895F894FFCFA0
:00000001FF
