:100000000C942A000C9447000C9449000C9447006F
:100010000C9447000C9447000C9447000C94470044
:100020000C9447000C9447000C9447000C94470034
:100030000C9447000C9447000C9447000C94470024
:100040000C9447000C9447000C9447000C94470014
:100050000C94470011241FBECFE5D8E0DEBFCDBF12
:1000600010E0A0E6B0E0E6EBF1E002C005900D92F2
:10007000A03AB107D9F720E0A0EAB0E001C01D9294
:10008000A23AB207E1F70E947C000C94D9000C94CC
:1000900000001F920F920FB60F9211242F938F938F
:1000A0009F93F8948091A0009091A10021E0822775
:1000B0009093A1008093A0008FE493EC0197F1F757
:1000C00000C0000078949F918F912F910F900FBEE8
:1000D0000F901F90189521E030E0A90102C0440F55
:1000E000551F8A95E2F748BB02C0220F331F6A955D
:1000F000E2F720952BBB08958FEF87BB8ABB80E882
:100100008BBF85B7826085BF7894A12CB12C0F2E50
:10011000F4E6CF2ED12CF02D32C0F80181918F0161
:10012000882321F06C2F8D2F0E946B00CF5FC83089
:10013000A1F7FFEFEF1AFF0ADF5FD830A9F08701C0
:1001400007701078112334F401501109086F1F6FE4
:100150000F5F1F4F000F111F000F111F000F111F06
:10016000005A1F4FC0E0D9CF18BA83EC99E001972D
:10017000F1F700C0000091E0C91AD10819F075012B
:10018000D0E0DDCF8091A0009091A100892B21F0DB
:10019000EFEFAE1ABE0ABBCF18BAFFE32DE083E043
:1001A000F15020408040E1F700C00000A12CB12CAC
:0601B000AECFF894FFCF72
:1001B6000100000000000001010000000000000135
:1001C6000100000000000001010000000000000125
:1001D6000100000101000001010001000001000111
:1001E6000101000000000101010000000000000103
:00000001FF
