:100000000C942A000C943E000C943C000C943C0090
:100010000C943C000C943C000C943C000C943C0070
:100020000C943C000C943C000C943C000C943C0060
:100030000C943C000C943C000C943C000C943C0050
:100040000C943C000C943C000C943C000C943C0040
:100050000C943C0011241FBECFE5D8E0DEBFCDBF1D
:1000600020E0A0E6B0E001C01D92A436B207E1F79F
:100070000E946F000C94F6020C9400001F920F92E5
:100080000FB60F9211248F939F93809160009091EF
:100090006100019771F41EBC8CB59DB5909363000F
:1000A000809362001DBC1CBC109261001092600025
:1000B0000FC08091600090916100892B49F48EB54A
:1000C00081608EBD81E090E090936100809360003C
:1000D0009F918F910F900FBE0F901F9018951ABA95
:1000E0008FEF87BB84BB11BA18BA15BA81E886B9FD
:1000F0008BB780648BBF85B7816085BF7894CFEF65
:10010000DFEF00E010E088248A9499249A94442434
:100110004394512C612C712C0F2EF1E4AF2EF02D55
:100120006894BB24B6F8C49A25E02A95F1F7C498E0
:100130006091620070916300072E000C880B990B90
:100140000E94D40120E030E048E652E40E946001C1
:100150006B017C0120E030E0A9010E9484021816A6
:1001600094F420E030E040E751E4C701B6010E947A
:100170005B0188238CF4C19A219721F50F5F1F4FF3
:10018000C62DD72D24C020E030E0A901C701B6015B
:100190000E948402181694F420E030E040EF51E40D
:1001A000C701B6010E945B01882344F4C19ACD2B9C
:1001B00061F401501109C42DD52D09C0C198C82D75
:1001C000D92D05C0C62DD72D02C0C42DD52D101692
:1001D000110614F4C69A01C0C6989FE926E881E08A
:1001E000915020408040E1F700C00000A7B8369A47
:1001F0003699FECF64B175B1CD9B1FC080E090E011
:100200000E94D20120E030E040E85AE30E948902D7
:1002100020E030E040EA50E40E94890220E030E033
:1002200040E85FE30E945B0188232CF4101611065E
:1002300014F4C29A07C0C29805C0CC9B02C0C29AEF
:1002400001C0C298B7B8369A3699FECF64B175B17D
:10025000CF9B22C080E090E00E94D20120E030E0FD
:1002600040E250E40E94600120E030E040E052E4CF
:100270000E948402181674F4101611065CF4C09AD9
:100280009FE926E881E0915020408040E1F700C0DE
:10029000000049CFC09847CFCE9B0BC0C09A9FE9C2
:1002A00026E881E0915020408040E1F700C0000046
:1002B0003ACFC09838CF0E940F0208F481E0089529
:1002C0000E9474010C944A020E94430258F00E945A
:1002D0003C0240F029F45F3F29F00C9433025111A5
:1002E0000C947E020C9439020E945B0268F39923FD
:1002F000B1F3552391F3951B550BBB27AA27621722
:100300007307840738F09F5F5F4F220F331F441F2E
:10031000AA1FA9F335D00E2E3AF0E0E832D0915062
:100320005040E695001CCAF72BD0FE2F29D0660F4F
:10033000771F881FBB1F261737074807AB07B0E892
:1003400009F0BB0B802DBF01FF2793585F4F3AF098
:100350009E3F510578F00C9433020C947E025F3F6F
:10036000E4F3983ED4F3869577956795B795F7951E
:100370009F5FC9F7880F911D9695879597F9089506
:10038000E1E0660F771F881FBB1F621773078407A2
:10039000BA0720F0621B730B840BBA0BEE1F88F7B1
:1003A000E0950895E89409C097FB3EF490958095F8
:1003B000709561957F4F8F4F9F4F9923A9F0F92F2B
:1003C00096E9BB279395F695879577956795B795A9
:1003D000F111F8CFFAF4BB0F11F460FF1BC06F5F8F
:1003E0007F4F8F4F9F4F16C0882311F096E911C0A1
:1003F000772321F09EE8872F762F05C0662371F0C2
:1004000096E8862F70E060E02AF09A95660F771FD5
:10041000881FDAF7880F9695879597F90895990FB1
:100420000008550FAA0BE0E8FEEF16161706E807BE
:10043000F907C0F012161306E407F50798F0621BDF
:10044000730B840B950B39F40A2661F0232B242BB4
:10045000252B21F408950A2609F4A140A6958FEFD3
:10046000811D811D089597F99F6780E870E060E025
:1004700008959FEF80EC089500240A94161617063D
:1004800018060906089500240A9412161306140685
:1004900005060895092E0394000C11F4882352F0E8
:1004A000BB0F40F4BF2B11F460FF04C06F5F7F4FA0
:1004B0008F4F9F4F089557FD9058440F551F59F087
:1004C0005F3F71F04795880F97FB991F61F09F3F41
:1004D00079F087950895121613061406551FF2CF6A
:1004E0004695F1DF08C0161617061806991FF1CFBA
:1004F00086957105610508940895E894BB276627E1
:100500007727CB0197F908950E940F0208F48FEF27
:1005100008950E949C020C944A020E943C0238F00A
:100520000E94430220F0952311F00C9433020C94A6
:10053000390211240C947E020E945B0270F3959F95
:10054000C1F3950F50E0551F629FF001729FBB27CA
:10055000F00DB11D639FAA27F00DB11DAA1F649F66
:100560006627B00DA11D661F829F2227B00DA11D19
:10057000621F739FB00DA11D621F839FA00D611D9F
:10058000221F749F3327A00D611D231F849F600DC0
:10059000211D822F762F6A2F11249F5750409AF0E9
:1005A000F1F088234AF0EE0FFF1FBB1F661F771F75
:1005B000881F91505040A9F79E3F510580F00C9440
:1005C00033020C947E025F3FE4F3983ED4F38695A9
:1005D00077956795B795F795E7959F5FC1F7FE2BE0
:1005E000880F911D9695879597F90895F894FFCFF8
:00000001FF
