S01700004763634170706C69636174696F6E362E7372656356
S11300000C942A000C947F000C9447000C94470035
S11300100C9447000C9447000C9447000C94470040
S11300200C9447000C9447000C9447000C94470030
S11300300C9447000C9447000C9447000C94470020
S11300400C9447000C9447000C9447000C94470010
S11300500C94470011241FBECFE5D8E0DEBFCDBF0E
S113006010E0A0E6B0E0EAECF1E002C005900D92E9
S1130070A03EB107D9F720E0A0EEB0E001C01D9288
S1130080A23EB207E1F70E949D000C94E3000C9499
S11300900000EF92FF920F931F93CF93DF938C0195
S11300A0C0E0D0E0A1E0B0E07D010C2E02C0EE0C77
S11300B0FF1C0A94E2F7F80120E030E040E091915F
S11300C0992341F0BD01022E02C0660F771F0A94E6
S11300D0E2F7462B2F5F3F4F2830310581F7E8BA0E
S11300E040954BBB2196085F1F4FC830D105E1F600
S11300F0DF91CF911F910F91FF90EF9008951F9280
S11301000F920FB60F9211242F933F938F939F93C7
S11301102091E0003091E10081E090E0821B930B9C
S11301209093E1008093E0009F918F913F912F91F4
S11301300F900FBE0F901F9018958FEF87BB8ABB4F
S113014080E48BBF85B7836085BF7894FF24FA94DD
S113015008E610E08091E0009091E1000197D1F46D
S1130160C0E6D0E0A8E9B0E09881FE0180858083F4
S11301703896EA17FB07D1F79D9321960C171D07B4
S113018099F7CFEFD0E080E690E00E9449002197F4
S1130190D1F7E0CF8091E0009091E100892BD1F676
S11301A0CFEFD0E080EA90E00E9449002197D1F798
S11301B0F8BA2FE986E891E0215080409040E1F7B9
S10D01C000C00000C7CFF894FFCF81
S11301CA010000000000000101000000000000011D
S11301DA010000000000000101000000000000010D
S11301EA01000001010000010100010000010001F9
S11301FA01010000000001010100000000000001EB
S113020A01000000000000010100000000000001DC
S113021A01000000000000010100000000000001CC
S113022A01000001010000010100010000010001B8
S113023A01010000000001010100000000000001AA
S9030000FC
